:020000040800F2
:1000000018270024C10300088F490008FB4400089A
:100010008D49000801110008056B00080000000070
:100020000000000000000000000000004D4D00082E
:100030004D110008000000000B4B0008594D00084E
:10004000DB030008DB030008DB030008DB03000818
:10005000DB030008DB030008DB030008DB03000808
:10006000DB030008DB030008DB030008DB030008F8
:10007000DB030008DB030008DB030008DB030008E8
:10008000DB030008DB030008DB0300085511000850
:100090006D1100086111000879110008DB030008E8
:1000A000DB030008B54E0008DB030008DB03000893
:1000B000DB030008DB030008DB030008DB030008A8
:1000C000DB030008DB030008DB030008DB03000898
:1000D000DB030008DB030008DB030008DB03000888
:1000E000DB030008DB03000800000000DB0300085E
:1000F000DB030008DB030008DB030008DB03000868
:10010000DB030008DB030008DB030008DB03000857
:10011000DB030008DB030008DB030008DB03000847
:10012000DB030008DB030008DB030008DB03000837
:10013000DB030008DB030008DB030008DB03000827
:1001400000000000000000000000000000000000AF
:10015000DB030008DB030008DB030008DB03000807
:10016000DB030008DB030008DB030008DB030008F7
:10017000DB03000891490008DB03000800000000D1
:10018000DB030008DB030008DB030008DB030008D7
:10019000DB030008DB030008DB030008DB030008C7
:1001A000DB030008DB030008DB030008000000009D
:1001B000DB030008DB030008DB030008DB030008A7
:1001C000DB030008DB030008000000000000000063
:1001D0000000000000000000DB0300080000000039
:1001E000000000000000000000000000000000000F
:1001F0000000000000000000DB030008DB03000833
:10020000DB030008DB03000800000000DB0300083C
:10021000DB030008DB030008DB030008DB03000846
:10022000DB03000800000000DB0300080000000002
:10023000DB030008DB03000800000000DB0300080C
:10024000DB030008DB030008DB030008DB03000816
:10025000DB030008DB030008DB030008DB03000806
:10026000DB030008DB030008DB030008DB030008F6
:10027000DB030008DB030008DB03000800000000CC
:10028000DB030008DB030008DB030008DB030008D6
:1002900000000000DB030008DB0300080000000092
:1002A00000000000DB030008DB030008DB0300089C
:1002B000DB030008DB030008DB03000885110008EE
:1002C00091110008DB030008DB03000800F002F8CE
:1002D00000F066F80AA090E8000C82448344AAF17A
:1002E0000107DA4501D100F05BF8AFF2090EBAE878
:1002F0000F0013F0010F18BFFB1A43F0010318475A
:10030000BC6B0000DC6B00000A444FF0000C10F8DE
:10031000013B13F0070408BF10F8014B1D1108BF83
:1003200010F8015B641E05D010F8016B641E01F823
:10033000016BF9D113F0080F1EBF10F8014BAD1C73
:100340000C1B09D16D1E58BF01F801CBFAD505E091
:1003500014F8016B01F8016B6D1EF9D59142D6D3EB
:10036000704700000023002400250026103A28BF13
:1003700078C1FBD8520728BF30C148BF0B60704717
:10038000002070471FB506F04DFD9DE8030000F00A
:1003900089FC00F08FF91FBD10B500F0F4F910BD15
:1003A00000F057FA1146FFF7EDFF06F093FC00F05E
:1003B00047FC03B4FFF7F0FF03BC00F005FE0000AC
:1003C0000948804709480047FEE7FEE7FEE7FEE7E9
:1003D000FEE7FEE7FEE7FEE7FEE7FEE70448054925
:1003E000054A064B70470000F54D0008CD02000895
:1003F000182100241827002418230024182300247F
:100400000FB4044910B503AA029800F079F810BCA3
:100410005DF814FB1020002410B5203AC0F00B80CA
:10042000B1E81850203AA0E81850B1E81850A0E8F8
:100430001850BFF4F5AF5FEA027C24BFB1E8185052
:10044000A0E8185044BF18C918C0BDE810405FEAC2
:10045000827C24BF51F8043B40F8043B08BF70473E
:10046000D20728BF31F8023B48BF11F8012B28BF43
:1004700020F8023B48BF00F8012B70474FF0000204
:1004800000B5134694469646203922BFA0E80C508A
:10049000A0E80C50B1F12001BFF4F7AF090728BF65
:1004A000A0E80C5048BF0CC05DF804EB890028BFE1
:1004B00040F8042B08BF704748BF20F8022B11F00A
:1004C000804F18BF00F8012B704770477047704786
:1004D00001694A1C02610878704700B58FB0CDE908
:1004E00001310021059105497944CDE903101146F8
:1004F000684600F017F80FB000BD0000E5FFFFFFF1
:10050000074B70B50D467B44FFF7E7FF04462846CE
:1005100000F0CCF810B14FF0FF3070BD204670BD38
:10052000296700002DE9F05F894604464FF0000A74
:10053000DFF874B1FB44C0F820A02046E16888478A
:10054000002874D0252806D0D4E901219047206ADC
:10055000401C2062F1E700265F462046E16888479C
:100560002028054607DB312D05D2781910F8200C1C
:1005700008B10643F1E7B00701D526F00406C4F838
:100580001CA00027C4F818A02A2D09D0284606F080
:10059000CBFA38B304EB8708303DC8F8185019E09F
:1005A00059F8041B204604EB87029161E1688847F3
:1005B000012F054618D1E069002820DA26F0200630
:1005C0001DE0D8F8180000EB800005EB4000303843
:1005D000C8F818002046E1688847054606F0A4FAE6
:1005E0000028EED1012F0AD02E2D08D12046E16837
:1005F00088477F1C0546022F46F02006C4DBA06911
:10060000002803DA404246F00106A061F00701D05D
:1006100026F010066C2D0BD0682D09D04C2D39D04A
:100620006A2D35D0742D35D07A2D33D016E038E0D0
:10063000E1682F4620468847B842054609D16C2F0D
:1006400026D04FF48060E16806432046884705467F
:1006500004E06C2F1AD04FF4807006430DB3A5F15F
:100660004100192802D8203546F400664A4629463A
:10067000204626604E46FFF783FE80B101280BD04E
:10068000F61D26F0070000F1080956E74020E4E7D0
:100690008020D8E70020D6E706F104094DE7284678
:1006A00052E7206ABDE8F09F64690000007B00F01B
:1006B0008000704710B542485421FFF7DFFE4148E3
:1006C0005421FFF7DBFE40485421FFF7D7FE3F4996
:1006D0003B483C4A3F4B08603D490A603A49196033
:1006E000531C0365481C1065012008653B48344ACB
:1006F00039A1784400F008FA20B9384878440A381B
:1007000000F0A7FA37482F4A35A1784400F0FCF9E9
:1007100020B9344878440A3800F09BFA32482A4A13
:100720002FA1784400F0F0F920B92F4878440A3816
:1007300000F08FFA40232248DC000021224600F01E
:10074000BFF920B125487844543800F082FA1D489A
:1007500022464023002100F0B3F920B1214878441B
:10076000543800F076FA184822461023002100F091
:10077000A7F9002806D01C487844BDE81040563838
:1007800000F067BA10BD104870B5006D20F001048C
:100790000B4800F02FFA0B4800F02CFA0A4800F042
:1007A00029FA09E0206D20F00105204600F022FA28
:1007B000204600F073F82C46002CF3D170BD0000E9
:1007C000BC1F002410200024642000243C010024CD
:1007D000400100244401002472000000B7670000BB
:1007E00077000000A36700008F6700000EB5CDE919
:1007F000000100F0C9FB029069460120ABBE0EBDAE
:1008000008B5694600900220ABBE08BD1FB58DE853
:10081000070069460520ABBE04B010BD1FB58DE8CA
:100820000F0069460620ABBEF6E708B569460090A2
:100830000920ABBE08BD1CB5CDE9000169460A2000
:10084000ABBE1CBD704708B5694600900C20ABBE1E
:1008500008BD754600F004FAAE46050069465346E9
:1008600020F00700854618B020B5FFF7B7FDBDE8BA
:1008700020404FF000064FF000074FF000084FF007
:10088000000B21F00701AC46ACE8C009ACE8C00998
:10089000ACE8C009ACE8C0098D46704770B50446A5
:1008A000051F00F0E3F90068002C14BF446870BD18
:1008B000002C18BFAC423CBF20466468F8D30168E6
:1008C0000A18AA4218BF456003D12A680546114498
:1008D000016028684119A1421CBF6C6070BD61684D
:1008E000696021680844286070BD2DE9F04705461D
:1008F0000C46C86820F4201040F48000C8608006D0
:1009000002D5084600F0FFFAE06841F282014FF09C
:10091000FF390140022903D0204600F09DFAB5E0DE
:1009200000F42041B1F5004F0FD1C00306D5616836
:10093000E06A884200D80846606006E02069E0620C
:1009400060606069FFF77FFFA061A0680022EEB2DF
:1009500000280DDAE1688B050AD4C043A06041F499
:1009600090302260E0606068411C61600670A5E024
:10097000E0689046226040F40050E060206968BB67
:100980006069FFF752FF012704F12405A0B1A08997
:1009900010F4407F08D0E06900F0B3F9206118B18D
:1009A000E06840F4006016E0E7612561E06820F44B
:1009B000407040F480600EE0E06900F0A2F9002889
:1009C0002061F1D0E06840F4006010F4407FE06006
:1009D00002D140F48070E06020696060E0682569C1
:1009E0006FF0010AC1051FD56168E06A884200D82E
:1009F0000846411B04D02246284600F037FAF0BBD7
:100A0000E068010203D5E562C4E9015854E0691CBD
:100A1000E1626160E16940F48030491EC4E902107E
:100A200030462E70BDE8F087010202D500F4803216
:100A30000AE06068411C61600670E0680A2E40F4BC
:100A40008030E06006D00022E16A6068814203D90C
:100A50000B4602E00122F7E70346A7895B1B7F05EF
:100A600003D4E7699F4200DDE2B1814200D801462C
:100A7000E5620F1AC4E90158002B09DD00E005E02A
:100A800022461946284600F0F1F908B14846C9E760
:100A900047B1A069E5626560C01BA061E06840F0F5
:100AA0001000E060E068000208D56168A069E562B6
:100AB000491B08446560A0615046B3E73046B1E782
:100AC00070B5C468A50713D0650211D4B2F5807F54
:100AD00009D0B2F5007F06D0B2F5806F08D10123AE
:100AE00000F1240106E05D1E6FF07F46B54201D3A0
:100AF000012070BD0161C361416024F47061114344
:100B0000C160002070BD00002DE9F0410C46074691
:100B10001646104600F06EF82078611C61280AD055
:100B2000722802D077283CD102E00125002405E09C
:100B30000225042402E0082448F2020511F8010B02
:100B40002B2806D0622809D011F8010C74280AD08D
:100B50000BE045F0030544F00204EFE745F004051F
:100B600044F00104EAE744F0100438462146FFF758
:100B70003DFE411C15D00021316171604FF40071C0
:100B8000F560F1617061200704D530460222002132
:100B900000F0E6F8306D40F0010030653046BDE809
:100BA000F0810020FBE72DE9F0410D460646104C90
:100BB000206DC10704D0410804D020F00104F7E7FC
:100BC00022460EE0542000F09CF807000ED0206D65
:100BD00047F001010843542120653846FFF74EFCD9
:100BE0003A4629463046BDE8F0418DE70020D6E779
:100BF000BC1F00242DE9F04704464FF000094FF0D8
:100C0000FF37C568D4E90486A80707D0204600F05E
:100C100057F93046FFF7F4FD002802DA3846BDE800
:100C2000F087280502D54046FFF738FE4C212046C4
:100C3000FFF724FC206D20F0010020654846EEE718
:100C400010B50446AFF300802046BDE81040FFF722
:100C5000B0BB10B500F07EF9BDE8104000F074B9EB
:100C600000487047B82000247047000000487047D3
:100C7000C0200024704770477047704738B504465D
:100C80000A4600206946AFF30080002808BF38BD3F
:100C900002460099204600F0A4F9012038BD012049
:100CA00000F0F3B9F8B5AFF30080054600200C461C
:100CB000102000BF0646A819A0420DD93246694649
:100CC0000020AFF30080070008BF00F0DEF90098B5
:100CD000A04218BF0546C419FFF7C8FF05600746C4
:100CE000F01D20F007004619284600F073F9B442C1
:100CF00008BFF8BDA21B31463868BDE8F84000F0D7
:100D000070B970B50646FFF7B1FF056806F10B0034
:100D100020F00704B4429CBF002070BD2B466A68D7
:100D2000BAB11068A04210D304F1080188423CBF58
:100D30005068586007D35168101941601168091B49
:100D4000016058601460101D70BD13465268002A7F
:100D5000E7D121462846FFF791FF0028DED170BD7C
:100D60002DE9F041044616460D464769007B800791
:100D70002ED03846FFF759FD50BB3EB3012E02D0AE
:100D8000022E25D104E0204600F045F905441DE07F
:100D90003846FFF758FDE168002841F01001E16096
:100DA00005DA204600F058F80120BDE8F081C903BB
:100DB0000BD56268E16A914200D81146A2691144DC
:100DC0002269891A814200DD08460544002D01DAB6
:100DD0000220EAE7E16A6068E268814206D2910394
:100DE000E06203D522F4003141F01002A669002729
:100DF000AE4213DCE16A814201D90B4600E00346B2
:100E000003EB060C2369ACEB030CAC4506DD814219
:100E100001D98C4600E084469C4505D1A760276037
:100E200042F02000A5620DE0AD1BE669AE1B8142D9
:100E3000A66000D90846C01A281A206058196060B8
:100E400022F0200003490840E060002084F8487048
:100E5000ABE70000BFCFD7FFC16821F4001141F01C
:100E60008001C16000218160016070472DE9F04779
:100E7000814614460E464FF0FF383248D568576910
:100E8000054209D03846A169FFF7D5FC002811DBDF
:100E90002C48C0430540E5602B463246494638465B
:100EA000FFF7B4FCA16920F00042B21A11440028F7
:100EB000A16103D02046FFF7CFFF4046BDE8F08791
:100EC00070B504460569C06A6168884200D8084662
:100ED000E16821F42011E160C90312D5A84208D0CD
:100EE0002246411B2846FFF7C1FF10B14FF0FF30EB
:100EF00070BD0020E562C4E90150E06820F4803054
:100F0000E060002070BD10B50446C06820F02000ED
:100F1000E060A16AA06988420DD02046FFF7D0FFAB
:100F2000E06820F4405040F01000E060A06AA0614A
:100F30002069E062606044F24001E0688843E0605C
:100F400010BD000010000200002801D000F03CB8E5
:100F50007047000010B5014602A000F07DF80120A6
:100F600010BD000053494752545245443A2052653F
:100F70006469726563743A2063616E2774206F70D0
:100F8000656E3A200000000010B5431C02E010F826
:100F9000011B71B18107FAD14FF0013202C88C1ADE
:100FA0008C4314EAC211F9D0C01A0A0603D0C01E3D
:100FB00010BDC01A10BD0A0401D0801E10BD090268
:100FC000FCD0401E10BD000001491820ABBEFEE75A
:100FD0002600020000210160C0E9011070471020C6
:100FE0007047034640688C46002818BF88423CBFC3
:100FF00003464068F8D318681844884207D00CF1BB
:10100000030020F00700001D411A521A0146081D76
:101010000A60FFF743BC10B50146C268900703D0D1
:10102000900607D5886A0AE000F03EF801210160C9
:10103000881E10BD8B69486818440B69C01A91F866
:1010400048301BB191F84910401A10BD1103FCD56E
:101050000028FADD401E10BD70B505460C460A207A
:1010600000E06D1C00F018F835B128780028F8D1A0
:1010700002E0641C00F010F814B120780028F8D1C8
:10108000BDE870400A2000F007B810B500F010F875
:10109000BDE81040FFF758BF08B569468DF800005D
:1010A0000320ABBE08BD000000487047B8200024F4
:1010B00010B5012805D0002103A0FFF7CDFF0120C6
:1010C00010BD09A1F8E7000053494752544D454D62
:1010D0003A204F7574206F662068656170206D65D9
:1010E0006D6F7279000000003A2048656170206DD4
:1010F000656D6F727920636F7272757074656400CC
:10110000FEE70020704700207047000005490022DC
:10111000054810B504F05CF90449034804F04BF9A4
:10112000002010BD90100024B40300249008002477
:101130000146044810B504F03EF9024804F014F9E1
:10114000002010BDB403002400207047704772B621
:10115000FEE70000014800F031BB00004801002418
:10116000014800F02BBB000048010024014800F0BA
:1011700025BB0000E8010024014800F01FBB00006F
:10118000E8010024014800F019BB00008802002497
:10119000014800F013BB000088020024F0B503688A
:1011A0004FF6FC716D4C426BD3F884508D4345EA89
:1011B0008205C3F88450036853F8845F068F25F4D2
:1011C0007F0545EA06451D60836B654D9F180268E3
:1011D000D2F888308B4343EA8703C2F8883002682C
:1011E00052F8883F868F23F4FE0343EA06431360D8
:1011F000066856F8A03FC26B8B4307EB420243EAF6
:1012000082033360076857F8A03FB0F8406023F4CA
:10121000FE0343EA06433B60D0E9103603FB062297
:101220000368D3F8B0608E4346EA8206C3F8B06024
:101230000368B0F84860D3F8B07027F4FE0747EAB7
:101240000646C3F8B060D0E91267036806FB0722C0
:10125000D3F8AC608E4346EA8206C3F8AC60D0E9AE
:101260001467036806FB0722D3F8F0608E4346EA52
:101270008206C3F8F0600368B0F85860D3F8F070E5
:1012800027F47C1747EA0646C3F8F0600368876DC9
:1012900053F8C06F02EB47028E4346EA82011960A1
:1012A0000168B0F85C20D1F8C03023F47C1343EA25
:1012B0000242C1F8C020016890F86020D1F8C03027
:1012C00023F07C5343EA0262C1F8C020416B04EB77
:1012D0008101C166826B01EB82020267C36B02EB84
:1012E000C3024267D0E91034634302EB8302826792
:1012F000D0E91234634302EB8302C267D0E91434AD
:10130000634302EB8302C0F88020836D02EBC303CA
:10131000C0F88430C46D826E544303EB8403C0F87C
:101320008830046E544303EB8402C0F89020AA4234
:101330000AD9D0F89C20032142F02002C0F89C205A
:1013400080F898100120F0BD002200E004C1D0F820
:1013500090308B42FAD80020F0BD000000AC004075
:10136000FCD30040F0B58E680C69D1E9005744EA1F
:101370000604DFB145F080452C43866ED1E906C5F1
:101380004F695E4391F8203045EA0C05D0F884E0BF
:101390000020D1F80CC047EA0363114F1D430EEB48
:1013A000860345EA0C05E3E8024511E044EA85447A
:1013B000E3E71418155CA67894F803C094F801E0EC
:1013C000360445EA0C6446EA0E252C43001D10C382
:1013D000CC6807EB144424788442EAD8F0BD0000BE
:1013E000306E000801220248D10300F0CFBE000099
:1013F0000008025870B5044600F0CEFE0546601C99
:1014000002D004480078044400F0C6FE401BA0420D
:10141000FAD370BD0C00002410B590F89830012B61
:1014200009D0022B07D0D0F89C1041F00201C0F87F
:101430009C10012010BD03689C6D0C4203D1DC6D33
:1014400044F0010404E09C6D31EA04041FD003243D
:10145000DC658B0505D50368D3F8E0401443C3F879
:10146000E0404B0505D50368D3F8E4401443C3F8C6
:10147000E4400068084A01EA0203446D074A1C433D
:101480004465106840EA91701060002010BDDC6D6A
:1014900044F00204DCE70000FFFFCF3F14A8004047
:1014A00070B5044690F89800022804D0D4F89C0047
:1014B00040F008000DE02068D0F8C03013F07C5FE9
:1014C0000BD0D0F8C4309B020CD5D4F89C0040F46B
:1014D0000070C4F89C00012070BDD4F89C0040F05E
:1014E0002000F6E7D0F8C400C0F3044520462B46A0
:1014F000FFF738FF21680120A840C1F8D000C4F8E8
:101500009400002070BD704790F89830012B07D0F0
:10151000D0F89C1041F00401C0F89C1001207047E5
:1015200061B10068012913D0D0F8B01021F0FE415C
:1015300041EA0261C0F8B010002070470068D0F89E
:10154000F01021F07C5141EA0261C0F8F010F3E79D
:10155000D0F8A01021F0FE4141EA0261C0F8A010CD
:10156000EAE770B590F89820012A09D0022A07D03E
:10157000D0F89C1041F00201C0F89C10012070BD11
:101580000B68CA6883B10B69072A43EA427325D006
:101590000C7A4A6942EA84724968006F00EBC10024
:1015A000C0E90032002070BD072A0DD00C7AD606A3
:1015B0000D8A4B6943EA847246EA0543C06E496866
:1015C0001A4340F82120EDE70B8A4FF06055D1E92E
:1015D000062442EA034245EA0423EFE78A69DBE78F
:1015E00030B590F89850039C012D07D0D0F89C108E
:1015F00041F00401C0F89C10012030BD0D010168CC
:1016000045EA820040EA43002043C1F88000002000
:1016100030BD704770470000F0B590F89840002545
:10162000022C04D0D0F89C1041F008012BE0402996
:101630004FF0004605D0412929D0046D8C4219D9BC
:1016400042E00468D4F8A07017F4FE0F12D0D4F86A
:10165000A4707F0613D0D4F8A470FF0105D5D4F888
:10166000A070B6EBD77F00D10125D4F8A470466FE7
:10167000446C24E0D0F89C1041F0200103E0D0F845
:101680009C1041F48071C0F89C100120F0BD0468EA
:10169000D4F8B07017F4FE0FECD0D4F8B4707F0615
:1016A000EDD0D4F8B470FF0105D5D4F8B070B6EB26
:1016B000D77F00D10125D4F8B470866FC46CC7F30E
:1016C00005273D446C4302E0446DC66F4C4306EB76
:1016D0008404266816F080465660266836D026F0C8
:1016E00060461660D4F800C000262F4F0CF0005C56
:1016F000C2F808C0D4F800C00CF0004CC2F810C00A
:10170000B4F804C01FFA8CFCC2F81CC0D4F804C0A2
:101710000CF4702CC2F80CC0D4F804C00CF4801C7B
:10172000C2F814C0D4F804C00CF4001CC2F818C0ED
:10173000D4F804C0CCF3066CC2F820C0D4F804C0BE
:1017400008344FEADC7CC2F824C008E0C6F38A46BD
:10175000C7E700BF14F806C003F806C0761CD2F82D
:101760000CC007EB1C4C9CF800C0B445F2D84029D3
:101770000AD041290CD020294FF001020CD2006878
:101780008A40C0F898200DE00068C0F8A85009E031
:101790000068C0F8B85005E0006801F01F018A40F9
:1017A000C0F89C200020F0BD306E00080068D0F822
:1017B000C40000F03F007047704700002DE9FF5F54
:1017C000DFF80CB304460BF10401DBF800002568D8
:1017D0000F68AA468007D5F85090696DD5F85080FB
:1017E0006E6D2A6DD5F854C02B6D00EA877000909D
:1017F00009F470496F6D286D01EA09010191DAF869
:101800005410DAF85490DAF8505008F00F0806EA4D
:101810000806029602F0F00203F071536FEA09061F
:101820001F4000F060700CEA020CCDF80CC0F2050D
:1018300001EA00090CD4E843C00509D400214FF4A3
:101840008073CAF85030CBF800102046FFF7B4FF81
:10185000700512D4E84340050FD4206800234FF4EC
:101860008068D0F8DC20D0F8E410C0F85080CBF8C5
:1018700000301140204600F077FBDFF858A20098B6
:1018800050B12268830F00EA0A001065CBF80030DF
:1018900020460099FFF737FE019850B12268830F68
:1018A00000EA0A001065CBF800302046019900F0EC
:1018B0005DFB029850B12268830F00EA0A001065B0
:1018C000CBF800302046029900F012FB039850B18B
:1018D0002268830F00EA0A001065CBF8003020462A
:1018E000039900F021FB30050CD4E843000509D42E
:1018F000236800204FF400621A65CBF800002046F0
:1019000000F035FBB00512D4E84380050FD4206801
:1019100000234FF40078D0F8D820D0F8E010C0F8B9
:101920005080CBF800301140204600F01EFB300301
:101930000CD4E843000309D4236800204FF40022AC
:101940001A65CBF80000204600F0D0FAF0030CD462
:10195000E843C00309D4236800204FF480321A659D
:10196000CBF80000204600F0FEFA70030CD4E843E8
:10197000400309D4226800204FF480231365CBF87C
:101980000000204600F0EEFAB0030FD4E8438003D5
:101990000CD4236800204FF400321A65CBF8000005
:1019A000D4F89C0040F08000C4F89C00B9F1000F0E
:1019B0000BD022684FEA997309EA0A001065CBF848
:1019C000003049462046FFF725FE5FB12268BB0F75
:1019D00007EA0A001065CBF80030D4F89C003843C1
:1019E000C4F89C003C492068884268D16068814600
:1019F0008068800763D0D9F82060D9F82410D9F81E
:101A00002080D9F82400D9F820C0D9F82470D9F85A
:101A10002030D9F82450D9F8202003F4FC4306F0F4
:101A20000F0AD9F824601D40D9F824B008F0300816
:101A30000CF4C07C02F4F02211EA0A0100EA080862
:101A400007EA0C0706EA0206D9F820A004D0C9F874
:101A50002010204600F083FAB8F1000005D061683C
:101A600008624146204600F07CFA6FEA0B0040060F
:101A70000ED46FEA0A0040060AD460684021C36BA6
:101A8000C26B01622046190C02F03F0200F068FAB6
:101A90002FB1606807623946204600F05FFA35B121
:101AA00060680562D4F89C002843C4F89C0036B1F5
:101AB00060680662D4F89C003043C4F89C00D4F8F7
:101AC0009C00002802D02046FFF7A3FDBDE8FF9F41
:101AD00010A80040FFFFCF3F00A000402DE9F041DB
:101AE00094B08D494C2204466846FEF795FC64B1DB
:101AF0008A4D2068A84202D100F58070606094F899
:101B000098004FF0000820B108E0012014B0BDE8B3
:101B1000F081204684F8998000F002F920688169FC
:101B200021F01001816100F037FB0327064604E035
:101B300000F032FB801B0A2811D82068806900075A
:101B4000F6D42068816941F00101816100F024FB35
:101B500006460DE000F020FB801B0A2808D9D4F8C7
:101B60009C0040F00100C4F89C0084F89870CCE719
:101B700020688069C007EDD02068816941F00201CA
:101B80008161207C01282068816937D041F04001C3
:101B90008161607C01282068816932D021F4804114
:101BA0008161A07C0128206881692DD041F4805199
:101BB00081612068A268816921F4407111438161CB
:101BC0002068816921F0A40181612068016921F008
:101BD00010010161E068012819D010B302281BD060
:101BE0002068816941F0800181612068016941F0CC
:101BF00010010161E06803280ED012E021F04001DD
:101C0000C6E741F48041CBE721F48051D0E720685A
:101C1000816941F0040103E02068816941F02001FD
:101C20008161207E6FF0FF02D4E90773A68A11025A
:101C3000400602EB0727A0F10070384327685B1EBF
:101C4000184301EB06463043F861A068B0F5407FC9
:101C500011D104F12800A68C6FF00F0C89C801EB9C
:101C60000641401E02EB0322104322680CEB0713CF
:101C700018430843D060206E30B12068626ED0F8FF
:101C8000C0101143C0F8C010D4E917126846D14201
:101C900009D02168A36E51F8C82F50F8233022F0E4
:101CA00007021A430A60216C49B12168626C51F83D
:101CB000BC3F50F8226023F0070232430A60A16C57
:101CC00051B12168E36C51F8BC2F50F8233022F059
:101CD000700242EA03120A60216D51B12168626DFF
:101CE00051F8BC3F50F8220023F4E06242EA0020A1
:101CF00008602068A84204D16068816821F003016F
:101D00008160C4F894800121C4F89C8084F8981004
:101D10002046FFF743FAF9E6406E000800A00040B5
:101D20002DE9F047B4B0814614212EA8FEF7A6FB9A
:101D3000B8216846FEF7A2FB664C0026D9F80000E1
:101D40004FF08051644A0C3C614F4FF00208614DE6
:101D50009042DFF888A14FF0090938D100201B918B
:101D60004A13CDE90020684601F048F808B1FFF7B2
:101D7000EEF93868401C3860012807D1286840F423
:101D800080702860286800F480703390206840F0EC
:101D900008002060206803222E922EA900F008007F
:101DA000CDE92F863196CDE93290504600F0E0F82B
:101DB00000221320114600F067FA132000F056FAB3
:101DC00000221520114600F05FFA15203BE0444A3E
:101DD00090423DD100201B914FF40042CDE90020FC
:101DE000684601F00BF808B1FFF7B1F93868401CFC
:101DF0003860012807D1286840F48070286028687E
:101E000000F480703390206840F002002060206869
:101E100060222E922EA900F00200CDE92F86319685
:101E2000CDE932902F4800F0A3F80022142011468B
:101E300000F02AFA142000F019FA002216201146A8
:101E400000F022FA162000F011FA34B0BDE8F08755
:101E5000254A9042F9D100201B914FF40042CDE970
:101E60000020684600F0CAFF08B1FFF770F9386833
:101E7000401C3860012807D1286840F48070286031
:101E8000286800F480703390206840F008002060DB
:101E900020684FF440512E91052200F00800CDE952
:101EA0002F862EA93196CDE93220504600F060F8F9
:101EB00000229F20114600F0E7F99F2000F0D6F99C
:101EC0000022A020114600F0DFF9A020BBE70000AF
:101ED00008000024EC44025800A00040000C025806
:101EE00000A400400004025800D4004070470000E5
:101EF00010B50446C80710D00848844201D104F048
:101F00005FFE0748844201D104F068FE0548844220
:101F100003D1BDE8104004F06FBE10BD480100249D
:101F2000E801002488020024704790F898100129E5
:101F300007D0D0F89C1041F00401C0F89C1001209B
:101F40007047022180F89810002201688B6923F005
:101F500001038B61C0F89C201046704770477047A2
:101F600070477047704770477047704770477047B9
:101F70002DE9F84F03247A4D00234FF001094FF06B
:101F8000B04B4FF00F0AE4E009FA03F6324078D084
:101F90000F7907F00307012F01D0022F1AD18768AC
:101FA0004FEA430ED1F80CC004FA0EF827EA0807EE
:101FB0000CFA0EFC4CEA070CC0F808C0476891F810
:101FC00004C0B743CCF3001C0CFA03FC4CEA070C2A
:101FD000C0F804C00E79F643B6070BD0C6684FEAC6
:101FE00043088F6804FA08FC26EA0C0607FA08F78B
:101FF0003743C7600E7906F00306022E12D1DE08C1
:102000000F694FEA437C00EB8606B646366A4FEA14
:10201000DC6C0AFA0CF807FA0CF726EA08063743D4
:10202000CEF820700F7906684FEA430807F00307DF
:1020300004FA08FC07FA08F726EA0C06374307609B
:102040004E6816F4403F1CD0464E376847F00207F2
:10205000376036689F0706F00206009623F00306F5
:1020600006F1B046B6463F0FD6F80864DFF8F880B0
:102070000AFA07FC404526EA0C0603D14FF0000C93
:102080003AE065E0DFF8E4C0604502D14FF0010CB2
:1020900032E0DFF8DCC0604502D14FF0020C2BE0EB
:1020A000DFF8D0C0604502D14FF0030C24E0DFF828
:1020B000C8C0604502D14FF0040C1DE0DFF8BCC081
:1020C000604502D14FF0050C16E0DFF8B4C0604562
:1020D00002D14FF0060C0FE0DFF8A8C0604502D136
:1020E0004FF0070C08E0DFF8A0C0604502D14FF0C8
:1020F000090C01E04FF00A0C0CFA07FC4CEA060C44
:10210000CEF808C44F68DBF80060FF0226EA02063A
:1021100000D516435F46CBF80060D1F804C0DBF869
:1021200004605FEA8C2C26EA020600D516437E6026
:102130006E684F6826EA0206BF0300D516436E603C
:102140002E684F6826EA0206FF0300D516432E606C
:102150005B1C0A6832FA03F67FF416AFBDE8F88F0D
:1021600080000058F444025800000258000402584D
:1021700000080258000C02580010025800140258BF
:1021800000180258001C0258002402580AB181614C
:1021900070470904FBE700000148806870470000B1
:1021A0000C00002402488168027811448160704765
:1021B0000C000024032010B500F086F801F00CFCA0
:1021C0000F4A104914681368C4F3032203F00F0385
:1021D0008A5CC95C02F01F0201F01F01D0400A4A6C
:1021E00020FA01F11160094908600F2000F010F891
:1021F00008B1012010BD00F02BF8002010BD000038
:10220000184402588C6E00081C000024180000249A
:1022100070B50D4D04462878A0B14FF47A71B1FB2A
:10222000F0F00A490968B1FBF0F001F004FF48B989
:10223000102C07D200222146501E00F025F8002065
:102240006C6070BD012070BD0C00002418000024DB
:10225000054808B5016841F002010160006800F01E
:102260000200009008BD0000F4440258002809DB79
:10227000410900F01F028900012001F1E021904096
:10228000C1F80001704700000E4BF0B41B680D460A
:10229000C3F30223C3F10706042E00D90426191D37
:1022A000072901D2002300E0DB1E012404FA06F115
:1022B0009C40491E2940641E994014402143F0BCB3
:1022C00004F021BC0CED00E0064900F0070210B557
:1022D0004FF6FF040868044B204040EA02201843F0
:1022E000086010BD0CED00E00000FA050168012354
:1022F000C0F80035002280F8F4248869044A40F0D0
:1023000000608861486D10434865002070470000F8
:102310000300001070470068416200207047F0B56C
:1023200003685D6A39B19F6A4C1E00204FF48276C3
:1023300005EB17450BE045EA0240986210E0471CA8
:1023400006EB800053F800C0F8B205EB1C45A04234
:10235000F5D34FF4807000EB810045EA02421A5039
:102360000020F0BDD0F8080503F015BB01EBC10259
:1023700000EB8202D0F80805926C03F068BA01EB1A
:10238000C10200EB8202D0F80805D2F8882203F0DF
:10239000BABAD0F8080503F000BB0A0601F00F0135
:1023A00001EBC10100EB810101D53C3101E001F5F8
:1023B0001F71006804F0ECB901F00F020B0670B554
:1023C00002EBC20104464FF001004FF0000504EBA0
:1023D000810103D581F83D003C3103E081F87D5255
:1023E00001F51F710A7094F8BC24012A08D084F802
:1023F000BC04206803F0E8FE002084F8BC5470BDE3
:10240000022070BD70B54268044601F00F00904292
:1024100001D9012070BD01F00F024FF000050B063D
:1024200002EBC2014FF0010204EB810103D581F8F8
:102430003D203C3103E081F87D5201F51F718D7024
:10244000087094F8BC04012808D084F8BC242068E3
:1024500004F02AF8002084F8BC5470BD022070BD3E
:1024600001F00F0101EBC10100EB8100D0F89002F7
:1024700070472DE9F04101F00F0604460D064FF0BC
:10248000010006EBC6014FF0000504EB810103D506
:1024900081F83D003C3103E081F87D5201F51F7168
:1024A0004F788A600B710E7007B14E83022B00D1FA
:1024B0004D7194F8BC24012A09D084F8BC0420682A
:1024C00003F0D0FD284684F8BC54BDE8F08102201A
:1024D000FBE770B501F00F05002405EBC50100EB2B
:1024E000810101F5227181E81C0001F80B4C01F813
:1024F0000C5DC368012B00D1CA61027B006804F047
:102500002BF8002070BD70B50D464168044605F0FB
:102510000F00884201D9012070BD29064FF0000646
:102520004FF0010207D500EBC00104EB810181F8F7
:102530003D203C3107E005EBC50104EB810181F84A
:102540007D6201F51F718A70087094F8BC0401283F
:1025500007D084F8BC24206803F0D2FF280702D0FB
:1025600007E0022070BD217B04F2C442206803F022
:102570006FFF002084F8BC6470BD70B501F00F04DB
:10258000002504EBC401012600EB8101483181E8FC
:102590002C0001F80B6C01F80C4DC368012B00D125
:1025A000CA61027B006803F0D7FF002070BD000005
:1025B0002DE9FC5F05680446284604F08AF90028E6
:1025C0007ED1206804F0B1F9002879D0D5F8080848
:1025D000C0F30D20C4F8FC04206804F0A6F98007BD
:1025E00004D52068416901F002014161206804F0CE
:1025F0009CF9C10604F2C440009034D5206881697A
:1026000021F0100181612F6A07F00F01C7F34340E9
:1026100001EBC101022804EB810606F51F7602D00A
:10262000062811D01AE047F6F070074216D0C7F31B
:102630000A12F1681746284604F07BF9F1687069C0
:102640003944F160384408E000990822284604F033
:1026500070F97069C7F30A110844706120688169D4
:1026600041F010018161206804F05FF900034FF030
:10267000000A4FF0020B4FF001097CD520680026BC
:1026800004F032F9074674E0F80770D02068F1B220
:1026900004F043F98046C00707D005EB4611C1F8A6
:1026A000089B3146204602F079F95FEA087025D58B
:1026B00005EB46110820C1F8080BFC49206800E032
:1026C00042E2026C00EB461001928A42D0F8081BED
:1026D00005D9090403D54FF40041C0F8081B204672
:1026E00000F01AFBF1490198884207D9E0680128F7
:1026F00004D120680121009A03F0AAFE5FEAC860B5
:1027000004D505EB46111020C1F8080B5FEA88706C
:102710001CD56869000605D5D5F8040840F4806129
:10272000C5F8041806EBC60004EB800090F87F1291
:1027300000F51F70012905D180F803A02046F1B2F1
:1027400000F008FA05EB4611C1F808BB5FEA8860A3
:1027500004D505EB46112020C1F8080B5FEA88403C
:1027600005D505EB46114FF40050C1F8080B7F0862
:10277000761C002F88D1206804F0D7F840036FD56D
:10278000206804F0AAF80026074667E0F80763D03F
:102790002068F1B204F0AFF88046C00723D0D5F826
:1027A000342806F00F0C05EB461309FA0CF08243AF
:1027B000C5F83428C3F80899E06801280FD106EB62
:1027C000C60004EB8000D0E911121144816436B9CF
:1027D000E06C20B920680121009A03F039FE204600
:1027E000F1B2FFF7C3FD5FEA087004D505EB4611AF
:1027F0000820C1F808095FEAC86004D505EB461156
:102800001020C1F808095FEA486004D505EB4611BD
:102810004020C1F808095FEA887016D5314628467D
:1028200004F02AF806EBC60004EB800090F83F1095
:102830003C30012905D180F803A02046F1B200F018
:1028400085F905EB4611C1F808B95FEA086003D5C0
:102850003146204602F008F97F08761C002F95D1FA
:10286000206804F062F8002811DAD5F8040820F096
:102870000101C5F8041894F8F40401283BD020465F
:1028800000F02EFA2068416901F0004141612068A2
:1028900004F04BF800050BD5D5F80808C00702D0A6
:1028A000204600F061FA2068416901F4006141614D
:1028B000206804F03AF800010AD52068416901F067
:1028C0000061416194F8F404E0B1204600F04CFA54
:1028D000206804F02AF8C00472D5D5F8040820F066
:1028E0000101C5F804182068102103F0C5FF00217C
:1028F0004FF67F322DE00021204684F8F4A4FFF744
:1029000009FDBFE784F8F4942068406D0121C0F30D
:102910008300C4F8F8042046FFF7FCFCD8E700BFAA
:1029200005EB4110C0F80829D0F8003923F4001352
:10293000C0F80039C0F8082BD0F8003B23F400138E
:10294000C0F8003BD0F8003B43F00063C0F8003B08
:10295000491C60688842E3D8D5F81C0840F0011192
:10296000C5F81C18206B68B1D5F8840840F00B013D
:10297000C5F88418D5F8440840F00B012846C5F87E
:1029800044180DE0D5F8140842F22B010843C5F8AD
:102990001408D5F8100840F00B012846C5F81018A7
:1029A000D0F8000820F4FE61C5F80018217B2068EB
:1029B000009A03F04DFD2068416901F480514161A6
:1029C000206803F0B2FF800417D5206803F08AFB6B
:1029D000206803F071FF206100F0DCFF217C236898
:1029E000CAB20146184604F005F8204600F062F924
:1029F0002068416901F400514161206803F095FFAE
:102A0000000707D5204600F06FF92068416901F002
:102A100008014161206803F088FF000616D5A86907
:102A2000012620F08001A9610DE000BF06EBC60081
:102A300004EB800090F87F02012803D12046F1B218
:102A4000FFF7ABFC761C6068B042EFD8206803F05B
:102A50006CFFC00221D501264F4616E006EBC601E9
:102A600005EB461004EB8101D0F8000991F84020F5
:102A7000012A09D1002807DAF0B281F83F7040F04E
:102A800080012046FFF789FC761C6068B042E5D8DB
:102A90002068416901F480114161206803F045FF1D
:102AA000800234D501204B4629E000000A30544F03
:102AB00000EBC00205EB401104EB8202D1F8001BD1
:102AC00092F88062012E19D1002917DA94F8FC647B
:102AD00001F4803106F00106B1420FD182F87F3255
:102AE000A96941F08002AA616969090606D4D5F88E
:102AF000040840F40070C5F8040803E0401C616855
:102B00008142D5D82068416901F4001141612068F3
:102B100003F00BFF400007D52046FFF723FC206899
:102B2000416901F080414161206803F0FEFE4007E9
:102B30000AD520684568680702D52046FFF729FCBA
:102B40002068416829434160BDE8FC9FD0F8080532
:102B500002F07CBFD0F8080502F08CBF2DE9F041EF
:102B600004008AB005D094F8BD040025266820B181
:102B700008E001200AB0BDE8F081204684F8BC548A
:102B800000F066F8032084F8BD04F06BC00500D4A3
:102B9000E560206803F056FC04F110016846282225
:102BA0008846FDF739FC94E80F0003F0A9FA0227E4
:102BB000D8BB2068002103F0DCFE0020012610E0D5
:102BC00000EBC001421C04EB810181F83D6081F8FB
:102BD00040504D648D64CD6481F83C00A1F85600EE
:102BE000D0B261688142EBD8002011E000EBC00157
:102BF000421C04EB810181F87D5281F88052C1F8BA
:102C00008452C1F88852C1F88C5281F87C02D0B24B
:102C100061688142EAD8282241466846FDF7FCFBFC
:102C200094E80F0003F052FB10B184F8BD74A0E7E4
:102C3000606A84F8385084F8BD64012802D12046C7
:102C4000FFF754FB206803F033FB002092E70000FD
:102C500010B5B0B00446B8216846FDF70FFC134923
:102C6000206888421FD100204FF48021CDE9001058
:102C70008A006846219200F0C1F808B1FEF767FAB1
:102C800000F0B4F80A48016841F000710160006882
:102C90000022114600F000702E904D20FFF7F4FA4C
:102CA0004D20FFF7E3FA30B010BD000000000440F3
:102CB000D844025870B504460069012570B1022855
:102CC00001D0FEF744FAD4F80805294602F041FF86
:102CD000D4F80805BDE8704002F0F5BE0025F2E723
:102CE000D0F8080502F01EBFD0F8080502F024BF96
:102CF00010B5044690F8BC0401280BD0012084F8DC
:102D0000381084F8BC04206803F062FE002084F8C8
:102D1000BC0410BD022010BDD0F8082500F2C4414B
:102D2000104602F022BF10B590F8BC1404460068AB
:102D3000012909D0012184F8BC14C16BC90509D44B
:102D4000A16A012902D005E0022010BD816B41F487
:102D500080318163206803F06AFD206803F09AFAED
:102D6000002084F8BC0410BD10B50446D0F8080556
:102D700002F03DFF2068D0F8001E41F00101C0F8CC
:102D8000001E206A002804D00248016841F00601B4
:102D9000016010BD10ED00E0134970B50A68D24320
:102DA000520705D5096801F00701814213D118E0E7
:102DB0000A6822F0070202430A60FFF7EDF90A4DA4
:102DC0004FF47A760446083D07E000BFFFF7E4F9C8
:102DD000001BB04201D9012070BD2868C0438004A7
:102DE000F4D4002070BD00000C480258024801686D
:102DF00041F08071016070470C4802582DE9FE4F88
:102E00000546DFF800A450F8081B0024FD4FC94315
:102E1000019005F1280026460AF1240A00900801D5
:102E20001DD4686E50B1B0F5801F0CD0B0F5001FF6
:102E30000ED0B0F5401F1ED001240FE0386840F4DA
:102E40000030386017E00198022101F05FFE03E0D6
:102E50000098022101F0EAFE04000CD026462888E2
:102E6000C043C00523D4A86D05281ED2DFE800F0BA
:102E70000C11161B1B006A6EDAF8001021F44011C9
:102E80001143CAF80010EAE7386840F400303860AF
:102E900009E00198002101F039FE03E000980021CB
:102EA00001F0C4FE0446C4B100E00124264628888F
:102EB000DFF85083C04308F12C0840052FD4D5F823
:102EC000A400B0F5C00F28D010DCB8B1B0F5001FD9
:102ED00019D0B0F5800F0FD11AE0AA6DDAF8001002
:102EE00021F007011143CAF80010E0E7B0F5000F28
:102EF00013D0B0F5200F10D001240FE0386840F453
:102F00000030386009E00198002101F0FFFD03E086
:102F10000098002101F08AFE044694B126462888D4
:102F2000C043000530D4D5F8A800B0F1407F29D0C7
:102F300011DCC0B1B0F1807F1AD0B0F1007F10D1A8
:102F40001BE0D5F8A420D8F8001021F4600111434B
:102F5000C8F80010E3E7B0F1806F13D0B0F1A06FB4
:102F600010D001240FE0386840F40030386009E0E8
:102F70000198002101F0CAFD03E00098002101F052
:102F800055FE044694B126462868DFF878B2C0435F
:102F90000BF1200B80011FD4E86CD8B110280FD0A2
:102FA000202812D0302815D0012414E0D5F8A8200C
:102FB000D8F8001021F0E0611143C8F80010E3E7F1
:102FC000386840F40030386004E00198022101F0D4
:102FD0009DFD044674B126462888C043C0042BD406
:102FE000E86DB0F5005F20D00DDCA0B1B0F5805FDA
:102FF0000FD115E0EA6CDBF8001021F0300111432D
:10300000CBF80010E8E7B0F5405F13D0B0F5804F83
:1030100010D001240FE0386840F40030386009E037
:103020000198002101F072FD03E00098002101F0F9
:10303000FDFD04468CB126462888C043800429D46F
:10304000286EB0F5403F23D010DC08B3B0F5803FC8
:1030500014D0B0F5003F0FD115E0EA6DDAF800109A
:1030600021F4E0411143CAF80010E5E7B0F5802FE4
:103070000ED0B0F5A02F0BD001240AE00198012159
:1030800001F044FD03E00098012101F0CFFD04466A
:1030900094B126462888C04340042AD4D5F8AC0011
:1030A000B0F1405F23D010DC08B3B0F1805F14D0E2
:1030B000B0F1005F0FD115E02A6EDAF8001021F4AC
:1030C000E0211143CAF80010E4E7B0F1804F0ED0C0
:1030D000B0F1A04F0BD001240AE00198012101F0CA
:1030E00015FD03E00098012101F0A0FD044674B134
:1030F00026462888C04300041FD4E86ED8B1B0F13A
:10310000805F0ED0B0F1005F10D0012414E0D5F83C
:10311000AC20D8F8001021F0E0411143C8F80010AD
:10312000E7E7386840F40030386004E00198012196
:1031300001F0ECFC044674B126462868C043C00187
:103140001ED4A86CD0B101280ED0022811D00328BB
:1031500014D0012413E0EA6EDAF8001021F0405197
:103160001143CAF80010E8E7386840F400303860CE
:1031700004E00198022101F0C9FC04466CB1264626
:103180002868C043400255D41F48016841F480714B
:103190000160FFF701F881460EE0AA6CDBF8001031
:1031A00021F003011143CBF80010E9E7FEF7F4FF2B
:1031B000A0EB090064283BD813480068C005F5D58A
:1031C000BCBBDFF84090B5F8B01009F14409D9F85C
:1031D000000001F4407100F44070884211D0D9F829
:1031E0000010D9F8002021F4407142F48032C9F86F
:1031F0000020D9F8002022F48032C9F80020C9F854
:10320000001003E02C44025800480258D5F8B000E2
:10321000B0F5807F19D1FEF7BFFF029011E000BF2B
:10322000FEF7BAFF0299411A41F28830814208D96B
:10323000032426462878DFF81494C043C00721D021
:103240003CE0D9F800008007EAD5D5F8B010C1F30A
:1032500001200328FE480DD0016821F47C51016053
:10326000B5F8B020D9F80010C2F30B021143C9F829
:103270000010DFE7F74A036802EA111223F47C51D9
:103280001143ECE7A86F182816D005DCA0B1082878
:1032900008D0102804D10AE020280DD028280BD00F
:1032A00001240AE00198012101F030FC03E00098BC
:1032B000012101F0BBFC044664B126462878C043D6
:1032C00080071ED4686F062819D2DFE800F0160CBC
:1032D00011161616AA6FD9F8001021F03801114303
:1032E000C9F80010EAE70198012101F00FFC03E0A2
:1032F0000098012101F09AFC04467CB100E0012411
:1033000026462878C04340071FD4D5F890000628E9
:1033100019D2DFE800F0160C111616166A6FD9F8EC
:10332000001021F007011143C9F80010E9E70198E6
:10333000012101F0EBFB03E00098012101F076FC94
:103340000446A4B100E0012426462878C043800644
:103350002BD4D5F88C00B0F1405F24D011DC10B331
:10336000B0F1805F15D0B0F1005F10D116E0D5F854
:103370009020D8F8001021F007011143C8F8001080
:10338000E3E7B0F1804F0ED0B0F1A04F0BD0012495
:103390000AE00198002101F0B9FB03E00098022146
:1033A00001F044FC044694B126462878C043400608
:1033B0002BD4D5F89800B0F5406F24D011DC10B3B1
:1033C000B0F5806F15D0B0F5006F10D116E0D5F8CC
:1033D0008C20D9F8001021F0E0411143C9F8001009
:1033E000E3E7B0F5805F0ED0B0F5A05F0BD001240D
:1033F0000AE00198002101F089FB03E00098022116
:1034000001F014FC044694B126462878C043000617
:103410002BD4D5F89C00B0F5C04F24D011DC10B3EC
:10342000B0F5005F15D0B0F5804F10D116E0D5F89B
:103430009820D8F8001021F4E0511143C8F800108A
:10344000E3E7B0F5004F0ED0B0F5204F0BD00124CC
:103450000AE00198002101F059FB03E000980221E5
:1034600001F0E4FB044654B126462878C043000727
:103470001ED4D5F88000B0F5805F0AD00FE0D5F8F3
:103480009C20D8F8001021F460411143C8F80010C6
:10349000EBE70098022101F0C9FB00B10126D5F845
:1034A0008020D9F8001021F440511143C9F80010D0
:1034B0002878C043C00613D4D5F89400B0F5807FB7
:1034C00005D10098022101F0B1FB00B10126D5F829
:1034D0009420D8F8001021F440711143C8F800106E
:1034E0002868C043000316D4D5F8A00038B1B0F561
:1034F000803F09D0B0F5003F0BD001240AE00198CD
:10350000002101F003FB03E00098022101F08EFB93
:1035100004468CB126462868C043400322D4D5F81F
:103520008400B0F5801F11D0B0F5001F13D0B0F5A6
:10353000401F15D0012414E0D5F8A020D8F80010C1
:1035400021F440311143C8F80010E4E7386840F432
:103550000030386004E00098012101F067FB044668
:103560005CB126462868C043C0031CD4286D70B1E6
:10357000B0F5803F10D0012414E0D5F88420D9F8AC
:10358000001021F440111143C9F80010EAE738682F
:1035900040F40030386004E00198022101F0B6FAEE
:1035A0000446DCB126462868C043800005D4009854
:1035B000022101F03BFB00B101262868C0438003D3
:1035C0001BD4E86FB8B1B0F5807F10D0B0F5007FA4
:1035D00011D0B0F5407F0ED001240DE02A6DDBF84C
:1035E000001021F480311143CBF80010DBE738687C
:1035F00040F4003038607CB326462868C043C002DF
:1036000007D42A6FDAF8001021F000411143CAF8FC
:1036100000102868C043800207D4AA6EDAF80010B0
:1036200021F080711143CAF800102868C04340009F
:1036300009D40748016821F4004101600168D5F808
:10364000B420114301602868C04306E05444025886
:1036500010440258CFFFFF001DE007D46A6DDBF86D
:10366000001021F040511143CBF800102868C043EE
:10367000000208D4D5F88820D9F8001021F44001C0
:103680001143C9F8001028790024C04300F001005C
:10369000204309D00EE0EA6FD9F8001021F4407100
:1036A0001143C9F80010A8E70198002101F02EFA93
:1036B00000B106462879C04300F00200204305D13E
:1036C0000198012101F022FA00B106462879C04391
:1036D00000F00400204305D10198022101F016FA00
:1036E00000B106462879C04300F00800204305D108
:1036F0000098002101F09AFA00B106462879C043EB
:1037000000F01000204305D10098012101F08EFA4D
:1037100000B106462879C04300F02000044304D1DC
:103720000098022101F082FA00B916B10120BDE82B
:10373000FE8F0020FBE700002DE9F05F04000F463C
:103740007ED0DFF83882D8F8000000F00F00B842D1
:103750000CD2D8F8001021F00F013943C8F800103E
:10376000D8F8000000F00F00B84269D12078844DED
:1037700040070AD52069296801F07001884204D900
:10378000296821F070010143296020787C4E361DA4
:1037900000070AD56069316801F07001884204D9D8
:1037A000316821F07001014331602078C0060AD5EC
:1037B000A069316801F4E061884204D9316821F4DC
:1037C000E061014331602078DFF8B4B180060BF18D
:1037D000080B0CD5E1695846DBF8002002F07002B6
:1037E000914204D9026822F070020A4302602078F4
:1037F00080070AD5E068296801F00F01884204D9E2
:10380000296821F00F01014329602078C0073ED0CC
:103810005B49A2682868183920F47060104328605A
:103820006068022818D0032819D00968012819D027
:10383000490700294ADADFF848A1AAF1080A00E09E
:1038400044E0DAF8002022F007020243CAF8002020
:10385000FEF7A2FC814612E009688903E9E70968DE
:103860008901E6E7C905E4E7FEF796FCA0EB09014C
:1038700041F28830814202D90320BDE8F09F61689F
:10388000DAF8000000F03800B0EBC10FECD120787E
:1038900080070AD5E068296801F00F01884204D248
:1038A000296821F00F0101432960D8F80010404633
:1038B00001F00F01B9420BD9016821F00F01394322
:1038C0000160006800F00F00B84201D00120D4E789
:1038D000207840070AD52069296801F070018842E4
:1038E00004D2296821F07001014329602078000783
:1038F0000AD56069316801F07001884204D23168EC
:1039000021F07001014331602078C0060AD5A0691A
:10391000316801F4E061884204D2316821F4E06149
:1039200001433160207880060CD5E1695846DBF808
:10393000002002F07002914204D2026822F070026C
:103940000A43026000F048F80E492A682B68C2F367
:10395000032203F00F038A5CC95C02F01F0201F02E
:103960001F01D040084A20FA01F1116007490860A0
:1039700007480068BDE8F05FFEF74ABC002000522F
:10398000184402588C6E00081C0000241800002403
:103990001000002430B500F01FF80B4A0B490C4B07
:1039A00015681468C5F3032204F00F048A5C095DEE
:1039B00002F01F0201F01F01D040064A20FA01F177
:1039C00019601060084630BD184402588C6E00081B
:1039D0001C00002418000024454970B545480968BA
:1039E000434B103B11F0380208D00111082A03D0D4
:1039F000102A0BD0182A0BD0084670BD196889060A
:103A0000FBD51968C1F3C101C84070BD3A4870BD0B
:103A10003749374D18310C1D24350A680968266866
:103A20002D6802F0030406F00102C1F30511C5F38D
:103A3000CC0515FB02F200EE102AB8EE400AE9B3FD
:103A40002F4ADFED2E0AB7EE001A6CB1DFED2D1A0A
:103A5000012C01D0022C43D002EE101A1068F8EEAF
:103A6000422A81EEA22A1EE01C68A40611D51B681A
:103A700001EE901A1168C3F3C103F8EE612AD84031
:103A800001EE900AC1F30800F8EE611A81EEA22A55
:103A90000BE001EE901ADFED1C2A00BFF8EE611A70
:103AA000106882EEA12AC0F3080001EE900AF8EE39
:103AB000611A40EE201A31EE810A00E015E022EE94
:103AC000000A1068C0F34620401C00EE900AF8EE91
:103AD000600A80EE201ABCEEC10A10EE100A70BD1A
:103AE00001EE901ADFED092AD8E7002070BD000032
:103AF000104402580090D00300366E0100000039D7
:103B0000304402580024744A0024744C001BB74B04
:103B10002DE9F05F04007DD0FF4F2078FE4D18376F
:103B2000DFF8F483103DC00748D0D8F800003968AA
:103B300000F03800102815D0182803D101F0030038
:103B400002280FD06068B0F5803F12D010B1B0F5F8
:103B5000A02F18D0286820F480302860286820F42E
:103B6000802009E02868800328D560680028D2D02A
:103B700024E0286840F480302860606888B1FEF74F
:103B80000BFB064609E0286840F480202860F0E737
:103B9000FEF702FB801B64287ED828688003F7D5D7
:103BA0000CE0FEF7F9FA064605E000BFFEF7F4FA6E
:103BB000801B6428F0D828688003F7D42078800719
:103BC00056D5D8F80000DFF85093396810F0380067
:103BD000A9F10C090ED0182801D188070AD0E06895
:103BE000A8B3296821F0190101432960FEF7D4FA2E
:103BF000064628E02868400702D5E06800288AD0F9
:103C0000E168286820F0190008432860FEF7C4FA2C
:103C1000064606E0D2E000BFFEF7BEFA801B02288F
:103C2000BAD828684007F7D5217CD9F8002022F0BF
:103C3000FE4242EA0161C9F8001019E0FEF7ACFA51
:103C4000801B0228A8D828684007F7D5ECE7FFE7D3
:103C5000286820F001002860FEF79EFA064604E07E
:103C6000FEF79AFA801B022896D828684007F7D4F6
:103C70002078C00646D5D8F80000DFF89C92396855
:103C800000F03800A9F10409082812D0182805D13D
:103C900001F00300012800E0CEE00AD0E06900282E
:103CA000286820D040F080002860FEF775FA0646AC
:103CB00015E02868C00502D5E06980287ED194F817
:103CC0002010D9F8002022F07C5242EA0161C9F8A4
:103CD000001017E0FEF760FA801B0228A0D82868C1
:103CE000C005F7D5EBE720F080002860FEF754FA16
:103CF000064604E0FEF750FA801B022890D8286898
:103D0000C005F7D42078000729D58348616964305D
:103D100000298146016811D041F001010160FEF7E0
:103D20003BFA064605E000BFFEF736FA801B022884
:103D300088D8D9F800008007F6D510E021F00101FD
:103D40000160FEF729FA064605E000BFFEF724FAF7
:103D5000801B022870D8D9F800008007F6D420789C
:103D6000800623D5A0690028286810D040F4805030
:103D70002860FEF711FA064605E000BFFEF70CFAD0
:103D8000801B022858D828688004F7D50EE020F45C
:103D900080502860FEF700FA064604E0FEF7FCF9C2
:103DA000801B022848D828688004F7D42078400770
:103DB00051D5DFF86891D9F8001000E015E141F421
:103DC0008071C9F80010FEF7E7F9064605E000BF6C
:103DD000FEF7E2F9801B64282ED8D9F80000C00550
:103DE000F6D54D4EA068603601280AD008B10528E6
:103DF00013D0306820F001003060306820F00400FB
:103E000002E0306840F001003060A06841F2883A7A
:103E100098B1FEF7C1F981460AE0306840F004002D
:103E20003060EEE7FEF7B8F9A0EB0901514503D881
:103E300030688007F6D50EE072E0FEF7ADF98146F6
:103E400006E000BFFEF7A8F9A0EB0901514567D8CD
:103E500030688007F6D4606A00287CD0DFF8B8A00C
:103E6000D8F800100AF1200A4FF6F87B0AF104088E
:103E7000C1F3C2010329AAF104096DD00228286800
:103E800020F08070286003D0FEF786F9044681E0B8
:103E9000FEF782F9064604E0FEF77EF9801B022851
:103EA00075D828688001F7D4E26A40F2F3313868A7
:103EB00054F8283F884340EA021018433860217BB9
:103EC0004FF4FE0C22894FF0FE47208A4902267DDE
:103ED000521E401EA1F5007189B2C2F308021143BF
:103EE000761E0CEA00400143484607EA0662114389
:103EF000CAF80010D9F8001021F00101C9F800102B
:103F0000D8F80030266A23EA0B0343EAC601C8F852
:103F10000010D9F8001004E010440258004802587C
:103F200035E0A26921F00C011143C9F800100168C5
:103F3000E26921F0020111430160016841F480311E
:103F40000160016841F400310160016841F48021A1
:103F50000160016801E06CE020E041F001010160D6
:103F6000286840F080702860FEF716F9044604E0E7
:103F7000FEF712F9001B022809D828688001F7D53E
:103F800057E000BFFEF708F9001B022802D9032002
:103F9000BDE8F09F28688001F4D44AE03968012820
:103FA000DAF8000021D0A26A01F0030393421CD189
:103FB000E26AC1F305118A4217D1216BC0F30802EE
:103FC000491E8A4211D1616BC0F34622491E9142BB
:103FD0000BD1A16BC0F30642491E914205D1E16BA2
:103FE000C0F30660491E814201D00120D0E7A16CD8
:103FF0004646D8F80000C0F3CC00814219D0D9F869
:1040000000004D4620F00100C9F80000FEF7C4F89A
:104010004FEA0007FEF7C0F8B842FBD0A26C306848
:1040200020EA0B0040EAC2003060286840F001003E
:1040300028600020ACE7401EB0F1807F10B501D3AE
:10404000012010BD4FF0E02460610F21601702F0E5
:104050005AFD0020A0610721216110BD7047704703
:1040600070470000F0B590F83C20012A41D0224E64
:10407000012480F83C40022280F83D2002681F4D58
:104080005368B242D2F808C001D0AA4203D14F68A7
:1040900023F470033B430F6823F070031F43576002
:1040A0000268B24219D0B2F1804F16D0144B9A4236
:1040B00013D0144B9A4210D0134B9A420DD0AA42FF
:1040C0000BD0124B9A4208D0114B9A4205D0114B9B
:1040D0009A4202D0104B9A4204D189682CF0800396
:1040E00019439160002180F83D4080F83C1008465B
:1040F000F0BD0220F0BD00000000014000040140BE
:104100000004004000080040000C0040001800407F
:104110000040014000E0004000E4004010B5040011
:1041200003D094F83D0010B107E0012010BD00203D
:1041300084F83C00204600F023F8022084F83D007B
:104140002068211D00F0BCFE012084F8480084F89E
:104150003E0084F83F0084F8400084F8410084F871
:10416000420084F8430084F8440084F8450084F851
:10417000460084F8470084F83D00002010BD000090
:1041800008B500680B49884212D10B48016841F01C
:104190000101016000680022114600F0010000905A
:1041A0001920FEF771F8BDE808401920FEF75EB847
:1041B00008BD000000000140F044025890F83D1096
:1041C000012901D0012070471A4A022180F83D10D0
:1041D0000168CB6843F00103CB60006890421AD0BD
:1041E000B0F1804F17D01449884214D01349884247
:1041F00011D0134988420ED0124988420BD012497F
:10420000884208D01149884205D01149884202D01D
:104210001049884207D181680F4A1140062906D00B
:10422000B1F5803F03D0016841F001010160002039
:1042300070470000000001400004004000080040FA
:10424000000C004000040140001800400040014004
:1042500000E0004000E400400700010070B50446A3
:1042600090F83C000025012814D03A4B012684F830
:104270003C60022084F83D0022689068184020F4D9
:104280007F409060086870282FD010DC10F00F0F6E
:1042900003D022E04FF0020070BD4FEA2012072A3F
:1042A0001BD2DFE802F0535353534B394100B0F1B6
:1042B000101F4BD009DCB0F5805F0FD0B0F5005F68
:1042C0001ED0B0F5801F08D140E0A0F58011203944
:1042D0003CD010293AD0202938D0012584F83D60FF
:1042E000002084F83C00284670BD4A682068D1E967
:1042F000021300F051FE2068816841F0770109E067
:104300004A682068D1E9021300F046FE20688168FF
:1043100041F480418160E1E7CA684968206800F0A3
:104320004FFE2068502106E0CA684968206800F006
:1043300058FE2068602100F039FECFE7CA6849685E
:10434000206800F03DFE20684021F4E72268014625
:104350001046F0E788FFCEFF704770B5044600684E
:1043600000250169C943890715D4C168C943890774
:1043700011D4EA1E0261012121772068806980073B
:10438000204602D0FFF7E8FF04E000F0A7F820463F
:1043900000F0A5F8257720680169C943490717D4BB
:1043A000C168C943490713D402216FF004020261B6
:1043B00021772068806910F4407F204602D0FFF703
:1043C000CBFF04E000F08AF8204600F088F825775B
:1043D00020680169C943090716D4C168C9430907A0
:1043E00012D404216FF00802026121772068C069AD
:1043F0008007204602D0FFF7AFFF04E000F06EF820
:10440000204600F06CF8257720680169C943C90689
:1044100017D4C168C943C90613D408216FF010022C
:10442000026121772068C06910F4407F204602D0E5
:10443000FFF792FF04E000F051F8204600F04FF83B
:10444000257720680169C943C90708D1C168C943F4
:10445000C90704D1891E0161204600F041F8206897
:104460000169C943090609D4C168C943090605D4CD
:104470006FF0800101612046FFF7F1FD20680169BE
:10448000C943C90509D4C168C943090605D46FF4F5
:10449000807101612046FFF7E1FD20680169C94391
:1044A000490609D4C168C943490605D46FF04001E3
:1044B0000161204600F020F820680169C94389069F
:1044C0000BD4C168C943890607D46FF0200101618C
:1044D0002046BDE87040FFF7C3BD70BD7047704710
:1044E00000680349884202D10249012008707047E0
:1044F00000000140000000247047FEE79FED132AF2
:10450000DFED132A10B5428810218388C488104635
:10451000F0EE420AB0EE620A02F070FC0D4A102181
:10452000F0EE420A184682ED080AB0EE620A02F086
:1045300065FC82ED090A10212046F0EE420AB0EE39
:10454000620A02F05BFC82ED0A0A10BD33336B4352
:1045500033336BC3740300240178012907D0022987
:1045600007D0032907D0042907D100F067B8FFF767
:10457000C5BF00F035B800F001B87047014610B56E
:1045800040888B88CC881021DFED100A9FED100A3F
:1045900002F034FC0F4A10219FED0F2ADFED0F2AA5
:1045A00082ED020AF0EE420AB0EE620A184602F00C
:1045B00025FC82ED040A10212046F0EE420AB0EEFE
:1045C000620A02F01BFC82ED030A10BD0000B44237
:1045D0000000B4C27403002400003443000034C35C
:1045E0009FED132ADFED132A10B54288102183882E
:1045F000C4881046F0EE420AB0EE620A02F0FEFBFA
:104600000D4A1021F0EE420A184682ED050AB0EE7E
:10461000620A02F0F3FB82ED060A10212046F0EE5A
:10462000420AB0EE620A02F0E9FB82ED070A10BD11
:104630001F850B421F850BC274030024F0B58278DE
:104640003E2390F801E0017903EA920CC4789307C5
:104650004779C5790E0782794CEA8E104FEA934C60
:10466000B30C4CEA041402F03F0643EA870344EA21
:1046700011140E21F7EE000ABFEE000A43EA92136E
:1046800045EA062502F0BAFB104A0E21F7EE000AB1
:10469000204682ED0B0ABFEE000A02F0AFFB82ED6E
:1046A0000C0A0E211846F7EE000ABFEE000A02F0CF
:1046B000A5FB82ED0D0A0E212846F7EE000ABFEE9B
:1046C000000A02F09BFB82ED0E0AF0BD7403002489
:1046D000F0B500230A251C463026372711E000BF1D
:1046E000B5EB107F02D906EB107C01E007EB107CE4
:1046F00001F813C001EB430C00015B1C8CF8014076
:10470000DBB29342ECD3F0BD1748002170B5154ED3
:1047100002258160012206601826C16020240174F0
:104720000423417481744661C0E90625C0E908523A
:104730008262C262C0E90C210464C0E90E21C0E9B2
:104740001131C0E91331C0E91531C0E91714C0E9CE
:104750001913FDF7C3F9002803D0BDE87040FCF73A
:10476000F6BC70BD00A0004048010024184800219C
:1047700070B5164E02258160012206601826C160C0
:10478000202401740423417481744661C0E9062524
:10479000056240F2064542628262C262C0E90C25AF
:1047A0000464C0E90E21C0E91131C0E91331C0E948
:1047B0001531C0E91714C0E91913FDF78FF9002866
:1047C00003D0BDE87040FCF7C2BC70BD00A400403F
:1047D000E80100241848002170B5164E02258160BA
:1047E000012206601826C16020240174042341744C
:1047F00081744661C0E90625056240F612054262F1
:104800008262C262C0E90C250464C0E90E21C0E9DD
:104810001131C0E91331C0E91531C0E91714C0E9FD
:104820001913FDF75BF9002803D0BDE87040FCF7D1
:104830008EBC70BD00D400408802002430B587B023
:1048400014216846FBF71AFE1E48016841F0040176
:104850000160016801F004010591016841F08001E7
:104860000160016801F080010591016841F00801D3
:104870000160016801F008010591016841F0010142
:104880000160016801F001010591016841F0020138
:10489000016000684FF400440B4D002200F002005C
:1048A000214605902846FDF771FC00210094012067
:1048B000CDE90101284603916946FDF759FB07B090
:1048C00030BD0000E04402580008025830B587B0FF
:1048D000184800241649EF220094802501944FF4D3
:1048E0007A730294039404940594069480E8160065
:1048F000C0E90334C0E90545FFF710FC08B1FCF737
:1049000026FC4FF4805000900A486946FFF7A6FC49
:1049100008B1FCF71CFC074804A90494059406940C
:10492000FFF7A0FB002801D0FCF711FC07B030BD59
:10493000000001402803002410490122104810B54E
:1049400000F060FF08B1FCF702FC0E490C4801F0D2
:1049500079F908B1FCF7FBFB0B49094800F020FD91
:1049600008B1FCF7F4FB064801F0F2F908B1FCF7D6
:10497000EEFBBDE81040FEF739BA00003800002415
:10498000B40300240401002498000024FEE7FEE79D
:104990000148FDF70DBE0000B01A00242DE9F041DA
:1049A0000446C0680D462027236801284FF40046BE
:1049B00004F2C44203EB4511D3F840C0D1F8080B10
:1049C00009D0DFF89CE0F4453AD1020433D500BFAA
:1049D000C1F8086B40E0234B5FEA007E04D59C459C
:1049E0003AD90004F4D437E05FEA806E02D5C1F80A
:1049F000087B31E010F0280F2ED19C4501D900042E
:104A0000E6D4D1F8101B05EBC50004EB8000C1F320
:104A10001201D0F89C32A3EB0101C0F8901200F50E
:104A20001F70ADB903691BB1C2681144C1600FE0CA
:104A3000206801210AE080060AD5C1F8087B07E05A
:104A400035B9D4F88C0218B90021184601F000FDE0
:104A50002046E9B2FDF793FC0020BDE8F08100009C
:104A60000A31544F0A30544F2DE9F84F0E4605686D
:104A7000814601EBC60100EB8104D4E913203C34EC
:104A8000904202D90120BDE8F88FA168101A814236
:104A900000D20846C01C05EB461887081BE000BF83
:104AA000A268A0EB010A524500D2924699F80C1078
:104AB0000AF1030000911FFA8AF3E168870828468B
:104AC000F2B202F00BF8E16801EB0A00E060616904
:104AD00001EB0A006061D8F8180980B2B84205D32A
:104AE000D4E90401814201D20028D9D1D4E90401DA
:104AF000884208D8D5F83418012006F00F029040FB
:104B00008143C5F834180020BDE770472DE9F04710
:104B1000454D044689464FF0000A2868C043800787
:104B20000AD0414E283E306820F080603060FDF7AA
:104B300033FB0746B04608E00120BDE8F08700BF20
:104B4000FDF72AFBC01B022867D8D8F80000000137
:104B5000F6D4206829684FF4FE0721F47C313E0228
:104B600041EA00302860207AA389B4F804C04002EA
:104B70002D4D2D495B1E227CACF1010C1035091D19
:104B8000A0F5007080B2521ECCF3080C07EA034374
:104B900040EA0C00184306EA0262104328600868E5
:104BA000626920F0C000104308600A68A06922F022
:104BB000200202430A60281D0A6822F010020A60DF
:104BC00002684FF6F873E4699A4342EAC40202604D
:104BD0000868B9F1000F40F010020A6011D00868AF
:104BE000B9F1010F11D040F400100860D8F80000AE
:104BF000444640F08060C8F80000FDF7CDFA054655
:104C00000DE0086840F40020EFE740F48010ECE786
:104C1000FDF7C2FA401B022801D903208DE7206866
:104C20000001F5D5504688E7284402582DE9F047A1
:104C3000454D044689464FF0000A2868C043800766
:104C40000AD0414E283E306820F080503060FDF799
:104C5000A3FA0746B04608E00120BDE8F08700BF90
:104C6000FDF79AFAC01B022867D8D8F80000800028
:104C7000F6D4208829684FF4FE0721F07C713E02AB
:104C800041EA00502860207AA389B4F804C04002A9
:104C90002D4D2D495B1E227CACF1010C1835091DF0
:104CA000A0F5007080B2521ECCF3080C07EA034353
:104CB00040EA0C00184306EA0262104328600868C4
:104CC000626920F44060104308600A68A06922F419
:104CD000007202430A60281D0A6822F480720A608A
:104CE00002684FF6F873E4699A4342EAC40202602C
:104CF0000868B9F1000F40F480720A6011D00868AA
:104D0000B9F1010F11D040F080700860D8F80000B0
:104D1000444640F08050C8F80000FDF73DFA0546D3
:104D20000DE0086840F48000EFE740F40000ECE795
:104D3000FDF732FA401B022801D903208DE72068D5
:104D40008000F5D5504688E728440258704701781E
:104D5000407841EA00207047FDF724BA70B59CB056
:104D60004C216846FBF78AFB202113A8FBF786FB42
:104D70000220FEF711F81E48016821F4404101604D
:104D80000168002401F440411B9101688904FCD5AD
:104D900002200A9028230990C20301210D910425C5
:104DA000CDE90012CDE90B030C261294CDE90E508B
:104DB000CDE910646846FEF7ABFE08B172B6FEE7B7
:104DC00040201A9008230501CDE9163013ABCDE938
:104DD00018053F21032283E8160013A81146FEF7A9
:104DE000ABFC002801D072B6FEE71CB070BD00001D
:104DF000184802582748F0B5274A016841F4700165
:104E00000160106800F00F00072804D2106820F03D
:104E10000F00C01D106021490020204C10340B6889
:104E20001F4D43F001030B6020600B682B400B60AB
:104E3000136803F00F03072B04D9136823F00F0343
:104E4000DB1D1360154C174A1834174B261D371DF0
:104E50002060124C154D28343060261D3860371DF7
:104E600023603B1D35601C1D3A60251D2E1D1860FA
:104E7000331D22602860326018600A6843F2D20451
:104E8000064B0B4D22F4802260330A6018602C60C0
:104E9000F0BD000088ED00E0002000520044025800
:104EA0007FEDF6EA80020101000202020000FF012C
:104EB000004000520148FFF750BA000028030024C8
:104EC0002DE9F0472A4B4FF0804A2A4D026898425C
:104ED000294E2A4F2A4C09D0504507D0A84205D068
:104EE000B04203D0B84201D0A04205D1D1F804C0ED
:104EF00022F070024CEA0202DFF888C0DFF88880F6
:104F00009842DFF8889015D0504513D0A84211D0B0
:104F1000B0420FD0B8420DD0A0420BD0604509D0AE
:104F2000404507D0484505D0194DA84202D0194D3B
:104F3000A84203D1CD6822F440722A434D6922F081
:104F400080022A43026098428A68C2620A688262CA
:104F500007D0A04205D0604503D0404501D0484568
:104F600001D10969016301214161BDE8F0870000B9
:104F7000000001400004004000080040000C004018
:104F8000000401400040014000440140004801404D
:104F900000E0004000E4004042EA032283680A4344
:104FA00023F47F410A43826070470000034B82680C
:104FB0001A400A4342F00701816070478FFFCFFF1C
:104FC00010B5036A046A23F00A0324F001040462A2
:104FD00084690B4324F0F00141EA0211816103620C
:104FE00010BD10B5036A23F0100303628369046ADD
:104FF00023F4704324F0A00443EA0232826144EABD
:105000000111016210BD2DE9F0410C46D0F8D41217
:10501000D0F8C83200EB8101D1F8C01229B304F0F6
:105020000F02002702EB820500EB8506B5694DB142
:1050300002EBC20203EB8202526CB5FBF2F302FBFD
:105040001352A2B1C1F81472D0F8D42200EB82003E
:10505000D0F8C40203692BB1D1F8080201F504713C
:10506000224698470020BDE8F0810320FBE700239B
:1050700021461A46B76100F0C7FDF3E770B5054653
:10508000D0F8D40205EB8000D0F8C04294B1284695
:1050900000F093FCC4F80C02D5F8D40205EB8000B4
:1050A000D0F8C412D4F80402CA6804F5037190471A
:1050B000002070BD032070BD70B5224D04462978D4
:1050C00000F0BCFB2878002600F00F0000EB800009
:1050D00004EB800086842046697800F0AFFB687896
:1050E00000F00F0000EB800004EB8000A0F864618A
:1050F0002046A97800F0A2FBA87800F00F0000EB92
:10510000800004EB80008684C684D4F8D40204EBCB
:105110008000D0F8C01299B1D0F8C402406880472E
:10512000D4F8D40204EB8000D0F8C00200F095FF60
:10513000D4F8D40204EB8000C0F8C062C4F8BC62AA
:10514000002070BDB000002410B5D0F8D41200EBE0
:105150008100D0F8C04284B1D0F8C41259B194F89B
:105160000002FF2807D08B68214694F80122984757
:10517000FF2084F80002002010BD032010BD0000B5
:105180000A21018000487047B400002470B58221D4
:1051900006460D4800F06AFA012105460A4800F06B
:1051A00065FA81210446084800F060FA0DB110212B
:1051B000A9714FF0400104B1A18000B1818043206A
:1051C0003080014870BD0000C000002470B582210D
:1051D00006460D4800F04AFA012105460A4800F04B
:1051E00045FA81210446084800F040FA0DB110212B
:1051F000A9714FF4007104B1A18000B181804320F6
:105200003080014870BD0000C000002470B58221CC
:1052100006460D4800F02AFA012105460A4800F02A
:1052200025FA81210446084800F020FA0DB110212A
:10523000A9714FF0400104B1A18000B181804320E9
:105240003080014870BD0000C00000242DE9F04707
:105250004FF407750446284600F000FF06004FF0A3
:10526000000965D02946FBF709F9D4F8D4020127D3
:105270003C4D4FF4007A4FF0100804EB8000C0F86A
:10528000C062C4F8BC62207CF0B3297840230222BB
:10529000204600F003FC2878402300F00F0000EBCC
:1052A000800004EB8000878402226978204600F0A9
:1052B000F5FB697808230322204601F00F0101EB7A
:1052C000810104EB8101A1F86471A97801F00F015B
:1052D00001EB810104EB8101A1F82680A97800F09F
:1052E000DDFBA978C84601F00F0101EB810104EB59
:1052F00081018F84C6F80492D4F8D40204EB8000B4
:10530000D0F8C402006800E01AE006F50176804794
:10531000C6F81080C6F8148032687AB1207CF8B1E3
:1053200040236978204600F0C5FB0020BDE8F087E7
:10533000D4F8D41204EB8101C1F8C0920220F5E741
:10534000297802225346204600F0A8FB28785346CD
:1053500000F00F0000EB800004EB80008784A3E7DF
:105360005346DEE7B000002410B5D0F8D41200EBAD
:105370008101D1F8C01259B1027C084C002AD1F841
:10538000042207D04023617800F094FB002010BD78
:10539000032010BD4FF40073F5E70000B0000024B7
:1053A00039B1D0F8D42200EB8200C0F8C41200203A
:1053B000704703207047D0F8D42200EB8200D0F869
:1053C000C00218B1C0F804120020704703207047D3
:1053D000D0F8D43200EB8300D0F8C00228B1C0F876
:1053E0001022C0F8081200207047032070472DE9F2
:1053F000FC410646D0F8D4020C46002106EB8000A2
:105400000D46D0F8C0728DF80010ADF8041037B119
:10541000217811F060022CD0202A48D102E003202C
:10542000BDE8FC81E288E2B109060BD5D0F8C402E0
:105430003946836860789847E288072A00D90722AE
:1054400039462CE0607887F80002E088402800D3D5
:1054500040203946C2B2304687F8012200F057F8A2
:105460002AE0D0F8C4020022214683686078984779
:1054700022E0607830B101281ED00A2809D00B281C
:1054800015D110E096F89C02032810D1022201A940
:1054900005E096F89C02032809D1012269463046AE
:1054A00000F04FF808E096F89C02032804D021464B
:1054B000304600F021F803252846B1E710B5D0F8B2
:1054C000B82200245268904700B10324204610BD42
:1054D000002070470020704713460A46002110B58F
:1054E00000F0E8FA002010BD13460A46002110B56E
:1054F00000F08AFB002010BD10B58021044600F0AA
:1055000064FB2046BDE81040002100F05EBB10B5F2
:10551000C0F858210323C0F89432C0F85C21134628
:105520000A46002100F0C6FA002010BD10B5052182
:10553000C0F8941200231A46194600F0BBFA002066
:1055400010BD10B582610223C0F89432C2611346C7
:105550000A46002100F058FB002010BD10B50421C0
:10556000C0F8941200231A46194600F04DFB0020A3
:1055700010BDF8B504460D460020ADF8000048887F
:10558000010A062947D006DC01290FD0022912D0D2
:10559000032962D11DE0072946D00F295DD1D4F837
:1055A000B402C26920E0694690473BE0D4F8B412E7
:1055B000207C0A68F7E7207C02260028D4F8B8028D
:1055C00005D0C16A684688470146467036E0816A60
:1055D000F8E7C0B2062840D2DFE800F003090D1159
:1055E0001519D4F8B4024268B2B3207CDBE7D4F8D2
:1055F000B4028268F8E7D4F8B402C268F4E7D4F8D9
:10560000B4020269F0E7D4F8B4024269ECE7D4F8D6
:10561000B4028269E8E7207CF0B9D4F8B802416BA3
:1056200068468847014609E0207CA8B9D4F8B8024A
:10563000016B68468847014607204870EA888AB1AE
:10564000BDF8000040B1824200D902462046ADF8C4
:105650000020FFF776FFF8BDFFE729462046FFF759
:105660004BFFF8E72046FFF779FFF4E778B542886B
:105670000D460178002604468A4212D9ADF8001082
:105680000AE0694600F00FF84178052904D18178D5
:105690000646A94205D000266188BDF80020914247
:1056A000EFD8304678BD0A8803781A440A8001781A
:1056B0000844704770B500284FF000051ED004461E
:1056C0002E4602E0761C641CF6B22378002BF9D13A
:1056D000022404EB4604148012786B1C03264A55FE
:1056E0000024AA1CCE5406E0551C8B54EAB2531C6D
:1056F000401C8C54DAB20378002BF5D170BD010048
:105700004FF0000004D0012901D0022901D003206C
:10571000704701207047000004A00A46024910B5F6
:10572000FFF7C8FF004810BD900600244344432003
:10573000436F6E666967000012200880004870475A
:105740005C00002404A00A46024910B5FFF7B2FF2E
:10575000004810BD9006002443444320496E746500
:10576000726661636500000004200880004870478D
:105770005800002404A00A46024910B5FFF79AFF1A
:10578000004810BD9006002453544D6963726F6544
:105790006C656374726F6E696373000004A00A46DF
:1057A000024910B5FFF786FF004810BD900600249F
:1057B00053544D3332205669727475616C20436FB7
:1057C0006D506F727400000010B51A2008800B48ED
:1057D0000A490830021F096800681468081809D0CF
:1057E00007490822FEF774FF0549042220461031BC
:1057F000FEF76EFF0248801E10BD000000E8F11F9A
:105800007E00002478B10023C0F8B832C0F8C4325A
:10581000C0F8D03209B1C0F8B4120121027080F88A
:105820009C1200F0CFB80320704710B5D0F8C80222
:10583000FCF7E8FDBDE81040FFF761BF10B5D0F8F8
:10584000C802FCF7B9FDBDE81040FFF758BF2DE9CD
:10585000F041174604464FF0000521B194F89C0230
:10586000032842D04CE0D4F8941204F11400022929
:1058700035D1D0E902639E4206D9F21A39468260D8
:105880002046FFF731FE0FE0B34214D14068984242
:1058900011D3D4F8981288420DD200222046114626
:1058A000FFF722FEC4F8985200231A4619462046F4
:1058B00000F000F913E094F89C02032808D1D4F812
:1058C000B802C16821B1C4F8D452C16820468847E3
:1058D0008021204600F079F92046FFF727FE94F852
:1058E000A00268B184F8A0520AE0D4F8B802426974
:1058F00032B1C4F8D452426920469047002800D102
:105900000020BDE8F08170B5134604464FF0000258
:1059100021B194F89C02032830D03AE0D4F89412D4
:1059200004F5AA70032934D1D0E902518D420AD975
:105930006A1A82600846824200D30246194620460F
:10594000FFF7CAFD25E094F8AA0210F01F0003D06B
:10595000012802D0022800D0002294F89C020328DB
:1059600008D1D4F8B802016921B1C4F8D422016980
:10597000204688472046FFF7F1FD0AE0D4F8B80238
:10598000836933B1C4F8D422826920469047002845
:1059900000D1002070BD0020704710B5D0F8B812BB
:1059A000012280F89C22002429B103794A68D9B2E7
:1059B000904700B10324204610BDD0F8C802FCF780
:1059C0004FBD000070B50178012929D11549022386
:1059D0000022154C0925C1F80805C0F8C812084670
:1059E000C1E90323C1E906320A624A62CA620A6354
:1059F0004A63C1E90045FDF7B1F808B1FBF7A7FB21
:105A000008484FF40071FCF786FC0648802200210C
:105A1000FCF785FC034801214FF4BA72FCF77FFCC8
:105A2000002070BDB01A002400000440D0F8C82245
:105A300001F07F000B0600EBC00002EB800002D5F6
:105A400090F83E00704790F87E02704710B5D0F88D
:105A5000D42200EB8202D2F8B82222B190F89C3214
:105A6000032B02D004E0032010BD126A02B190475C
:105A7000002010BD10B5D0F8D42200EB8202D2F87D
:105A8000B82222B190F89C32032B02D004E003200C
:105A900010BD526A02B19047002010BD10B51C46DF
:105AA000D0F8C80213462246FCF7E3FCBDE81040DC
:105AB000FFF725BE10B5D0F8C802FCF70AFDBDE817
:105AC0001040FFF71CBE2DE9F041044601250020DF
:105AD000D4F8B812064684F89C52C4F89402606068
